:020000040800F2
:100000000080002079520008C9520008C952000837
:10001000C9520008C9520008C95200080000000077
:10002000000000000000000000000000C9520008AD
:10003000C952000800000000C9520008FB3A00083D
:10004000C9520008C9520008C9520008C952000824
:10005000C9520008C9520008BD3C0008C33C000852
:10006000C93C0008CF3C0008D53C0008C952000834
:10007000C9520008C9520008C9520008C9520008F4
:10008000C952000800000000C9520008C952000807
:10009000C9520008C9020008D5020008DB3C00086C
:1000A000F13700083D3700080538000861370008BF
:1000B00075370008893700089D370008C9520008C5
:1000C000C9520008C9520008C9520008C9520008A4
:1000D000C95200087D45000895450008B145000853
:1000E000033D0008C9520008C9520008C95200085F
:1000F000D9370008C9520008ED3700080000000099
:1001000000000000C952000800000000C9520008A9
:10011000CD45000800000000B1370008C5370008D1
:10012000C9520008C9520008C9520008C952000843
:10013000C95200080000000000000000C952000879
:10014000C9520008C9520008000000000000000069
:10015000000000000000000000000000000000009F
:10016000000000000000000000000000C95200086C
:10017000C95200080000000000000000000000005C
:1001800000000000C952000800000000000000004C
:10019000000000000000000000000000000000005F
:1001A0000000000000000000C9520008E5450008FA
:1001B000C9520008C9520008C952000800000000D6
:1001C00000000000C952000800000000000000000C
:0801D000C9520008C9520008E1
:1001D800034613F8012B002AFBD1181A013870477F
:1001E80053B94AB9002908BF00281CBF4FF0FF3196
:1001F8004FF0FF3000F00CB8ADF1080C6DE904CEFB
:1002080005F0C4FADDF804E0DDE9022304B0704724
:10021800704700BF10B5054C237833B9044B13B1B0
:100228000448AFF300800123237010BDB400002000
:1002380000000000945A000808B5034B1BB103499D
:100248000348AFF3008008BD00000000B80000209C
:10025800945A000838B505460024A1B206482A4633
:10026800013401F069F8B4F5807FF6D1BDE8384073
:10027800014800F059BF00BFD800002038B50D4B29
:100288000D4D00241C70287005F0BEF80B4B00F5CE
:10029800FA7018602B78012BDAB206D0022A07D040
:1002A8002046BDE83840FFF7D5BF4FF48200F8E795
:1002B8004120F6E7D000002000000020D4000020F4
:1002C800014800F06BBA00BFF8000020014800F0B8
:1002D80082BA00BFF800002010B592B000214FF498
:1002E8004073402202A8CDE9001305F075F940F2E9
:1002F80023141D48694600F0DCF908BB1B4B1B782A
:10030800032B2FD11A4C05F07FF82368C01A002858
:1003180028DB1849184804F023FF2368174A03F517
:10032800FA732360137883F00103002B14BF4FF492
:1003380082400020137012B0BDE81040FFF78ABF5A
:100348009DF80430002BD4D1009BA342D1D19DF855
:100358000730002BCDD09DF808000328C9D8FFF737
:100368008DFFC6E712B010BDF80000200000002085
:10037800D4000020AC5A0008D8020020D000002089
:1003880010B50446406808B103F09BFA204610BD3A
:1003980010B530482F4C9AB006224FF4E13104F0E2
:1003A8004DFE94F85C31002B45D02B4800F065FEDB
:1003B800FF21294800F0F1FF274800F0B5FE03208F
:1003C8000024FFF75BFF25494FF47A73012208A840
:1003D80000F0E8FD2346224640F223116846CDE9A5
:1003E8000044CDE9024400F0E8FC022314936A4675
:1003F80004AB08A91A48CDE90444CDE9064400F045
:100408006EFA044606A8FFF7BBFF059808B103F08B
:1004180058FAA4B913490F4804F0A2FE12490D482E
:1004280004F09EFE02A8FFF7ABFF019808B103F0A5
:1004380048FA1AB010BD0A2004F0EAFFB1E70B49E8
:10044800044804F077FE10222146024804F0B5FE65
:10045800E4E700BFD8020020D800002020A1070050
:10046800F8000020B95A0008E25A0008CA5A0008E1
:100478001FB5164B192199700C2215491A700922BB
:100488005A70DA700B60134B0B205A70DA70124AEC
:10049800187018209870136041F21563ADF80C308D
:1004A80001238DF80E30CDE90012039B0B4A0C494D
:1004B8000C4800F0CEF80C48522303224FF4807108
:1004C80005B05DF804EB00F021BF00BF5401002027
:1004D8000C000020500100200400002000A400406F
:1004E80000640040F8000020D800002010B50D4836
:1004F80000F0B5FD0C48FFF743FF0B4B1C46A3F17A
:100508000800FFF73DFFA4F1300000F09EFBA4F1C6
:100518003C0000F09AFBA4F14800BDE8104000F050
:1005280094BB00BFD800002040010020036830B50C
:10053800C3F3807423F060420C715C000A605CBFF6
:10054800920C0A604468134DC4F30342AA5CA502E6
:1005580015D514F4801F0CBF02230323002CACBF55
:10056800240EFF24CA714B718C713BB103320430E5
:1005780002F4FE7204310244904205D130BD83F08A
:100588000053C3F34073E9E750F8043F41F8043FD0
:10059800F2E700BF0B5B000830B591FAA1F391FABE
:1005A800A1F1B3FA83F3046A9B000F25B1FA81F134
:1005B80005FA03F3890024EA03038A401A43026216
:1005C80030BD30B5090A91FAA1F3B3FA83F3446A4E
:1005D80091FAA1F19B000F25B1FA81F105FA03F315
:1005E800890024EA03048A402243426230BD0000A5
:1005F800002807DB044A4109012300F01F0083405B
:1006080042F82130704700BF00E100E091FAA1F301
:10061800B3FA83F310B591FAA1F102685B000324E1
:1006280004FA03F3B1FA81F122EA03024900022332
:100638008B401343036010BD10B500214FF4407385
:10064800C0E9001304464022083004F0C5FF2046E4
:1006580010BDF7B504460D4616460193089F00F0F5
:10066800EFFA04F10C0000F0EBFA04F1180000F0C6
:10067800E7FA97E80300099A666204F1280383E819
:10068800030092E8030004F1300383E80300BDF897
:1006980004209DF8063084F83A3020460023C4E947
:1006A8001033C4E91233C4E914332287E56303B075
:1006B800F0BD08B572B60C3000F020FB62B608BD7C
:1006C800436A2DE9F04148270C7903F51E7C57430E
:1006D8000B680CEB0706F4B123F0604343F0804548
:1006E800CB79302B1BD8202B1BD8182B1BD8142BBD
:1006F8001BD8102B1BD80C2B1BD8092B1C4628BF2A
:10070800092491F805E02404BEF1030F15D8DFE8A9
:100718000EF0121E2333204D05EA8345E0E70F242F
:10072800EFE70E24EDE70D24EBE70C24E9E70B24B3
:10073800E7E70A24E5E745F00055C16B4CF8075098
:10074800012393407460C1F8CC30BDE8F0818B6818
:10075800B360CB68F360F0E70333043103F4FE734E
:1007680044F4001406F1080E0B449942E5D051F800
:10077800048F4EF8048BF8E70333043103F4FE7357
:1007880044F4401406F1080E0B449942D5D051F8B0
:10079800048F4EF8048BF8E70000FC1F30B5C36BDC
:1007A80093B0802204461A656846FFF745FFE36B5D
:1007B800D3F8C450AB0601D113B030BD694620460A
:1007C80000F09CFA0028F7D0C5F304426946204699
:1007D800FFF776FFEBE72DE9F04FC26B136D93B08F
:1007E80003F00903044613656846FFF725FF482709
:1007F80004F10C0804F11809D4F83CA0DAF8905078
:100808006A060ED0606AC5F30526B030694607FB54
:100818000600FFF78BFECAF894606946404600F070
:100828004AFAD4F83CB0DBF898A01AF07F0F0FD042
:10083800606ACAF3052600F5C470694607FB06001E
:10084800FFF774FECBF89C606946484600F033FA1F
:1008580045EA0A056B06CFD113B0BDE8F08F38B56D
:1008680003788B4204460ED20170C9B2880003F0A7
:1008780026F86278054660680023934204D308B1DD
:1008880003F01FF8656038BD50F8231045F82310B1
:100898000133F2E770B504460378407898420E4673
:1008A8000FD14030C0B22070800003F008F86278A1
:1008B8000546606800239A420BD808B103F001F896
:1008C800656063786268316842F8231001336370A9
:1008D80070BD50F8231045F823100133EBE72DE9DC
:1008E800F04F9046054685B008460C461F4600F076
:1008F80065FB98F8013094F84520A96A1C2B7B7A8F
:100908000646A2F1FF0E88BF40F08056082B88BF2C
:1009180046F00056DEF1000343EB0E038B46002B36
:1009280040F03481EB6A01EB43039B4500F02B81D7
:100938009BF800309A420CBF01230023EFD00BF143
:10094800020BECE71A4651464846FFF73AFE5BE1D0
:100958004946FFF736FE67E010221A614FF49C59AA
:100968007AE04FF4995977E04FF4985974E0D8F841
:10097800043053F82B206B6A43F82B20D8F80C303E
:1009880003A953F82B3003935046FFF783FF0BF16D
:10099800010BA6E06A6A7B68703253F8381042F897
:1009A800381003EBC80302EBC8005B684360FB68C0
:1009B80003A953F8283003935046FFF76BFF08F15B
:1009C80001089BE004F043FD5E65CDE09AF8000065
:1009D800000902F07BFF9AF800B0C1680BF00F0322
:1009E8004FF0010909FA03F999FAA9F2B2FA82F269
:1009F8004FF0030C52000CFA02F294F8443021EA4A
:100A0800020199FAA9F2B2FA82F2520093400B431A
:100A1800C3604946FFF7FAFD1BF0080F9AF801205A
:100A280096D14946FFF7B8FDEB6B01229A619A69A6
:100A3800D007FCD503229A6183229A6100221A61A9
:100A480094F82920022A87D0032A8AD0012A8BD138
:100A580010221A614FF49D5994F842200AB949F0BE
:100A680040096269A0682169013A0138520642EAE0
:100A7800004201390A43E168013942EA0122A169C9
:100A8800DA610139090241EA0041206A626A0138E3
:100A98000143E069013841EA0011101E18BF012026
:100AA80041EAC0511202D9609A6498F8011094F88A
:100AB8002F20787A42EA014242EA0062206B42EA39
:100AC8000012606B42EA800294F82E0005F1400A99
:100AD80042EA4002C3F880205046FFF7C0FE4FF0BC
:100AE800000B98F801309B45FFF441AF05F1480A27
:100AF800797A5046FFF7B3FE4FF000087B7A9845A5
:100B0800FFF448AF002E37D1B4F84010284600F063
:100B1800A4F8618D05F10C0000F09FF8A18D05F196
:100B2800180000F09AF8A36B95F83A202B65E36B50
:100B38006B65EB6B002A3FF447AF89225A650324A3
:100B48004FF0FF32C3F8DC2095F938009C65FFF7B9
:100B58004FFD95F83A30002B3FF434AF95F9390042
:100B6800FFF746FDEB6BDC6549F003029A61C3F8B9
:100B780018909A69D107FCD4304605B0BDE8F08FCB
:100B880046F0004650E746F080463DE09BF80000FE
:100B9800000902F09BFE9BF80020019202F00F036F
:100BA8004FF0010A0AFA03FA514681460093FFF70B
:100BB8002DFD4168009B94F84300019A21EA0A013F
:100BC80000FA03F30B43C9F804309AFAAAF3B3FA0C
:100BD80083F3D9F8081003205B0000FA03F321EA35
:100BE80003039AFAAAF1B1FA81F14900884018433F
:100BF800C9F8080012079BF801303FF5A3AE1A4662
:100C080051464846FFF7C8FC94F84620296BA2F1E4
:100C1800FF0CDCF1000343EB0C038A46002B7FF446
:100C2800D5AE6B6B01EB43039A45A9D09AF8003017
:100C38009A420CBF01230023F0D00AF1020AEDE723
:100C48000022C0E900228260704710B5044600689F
:100C580008B102F036FE204610BD2DE9F0470446E3
:100C680000680F4608B102F02CFE4820784302F0D5
:100C780026FEB946804600254FF0030AB9F101095E
:100C880000F1480606D2C4F80080A780E580A56078
:100C9800BDE8F08746F8485C06F8445C06F843ACC3
:100CA80006F8425C06F8415C40220021083004F056
:100CB80093FC3046E2E738B504460089A388984299
:100CC80034BF0125002517D2E288104480B2834240
:100CD80098BFC01A236898BF80B2482202FB003030
:100CE80004F0FCFC2389628901339BB29A42238178
:100CF80000D26381284638BD0133FAE738B5044687
:100D080008462389002B14BF0125002512D023682B
:100D1800E188482202FB013104F0E0FC2389A28823
:100D2800013B2381E38801339BB29A42E38004BFED
:100D38000023E380284638BD70B504460378407820
:100D480098420E460FD14030C0B22070800002F0A9
:100D5800B6FD62780546606800239A420BD808B150
:100D680002F0AFFD656063786268316842F823106D
:100D78000133637070BD50F8231045F82310013318
:100D8800EBE737B541EA0205B5F5006F044612D224
:100D9800013342EAC36242EA014141F080410191D4
:100DA80001A9FFF7C9FF04F1080006A9FFF772FDC2
:100DB800012003B030BD0020FBE707B500931346C0
:100DC8000A46FFF7DEFF03B05DF804FB104B9A6D8F
:100DD800920182B018D49A6D42F000729A659A6DA9
:100DE80002F000720192019A9A6B42F000729A63C3
:100DF8009A6B22F000729A63D3F8882022F040722E
:100E080042F00072C3F8882002B001F05BB800BF5E
:100E1800001002402DE9F0479A46037191462023BD
:100E28004FF48072C0E902328022C0E90422836153
:100E3800594A01601023C0E907330023C0E9093289
:100E48003C22C0E90B23C0E90D33C363534B036451
:100E58004FF47F43A0F84430FF2380F8463040F237
:100E68008117B7FBFAF7312F01FB0AF828BF3127A2
:100E78000446FFF7ABFF07FB08F33E46B0FBF3F26F
:100E88004FF0FF35A3EB0803032E21D9202A1FD8E2
:100E980052B102FB06F108FB1101A9423EBFA26054
:100EA80037460D46202A0CD003EB080102FB01113E
:100EB80002F1010E0A1A954282BFC4F808E03746CB
:100EC8001546B0FBF3F2013EA3EB0803002DDBD17E
:100ED800089B7B436426C3F1C801B3FBF6F202F119
:100EE800FF3C06FB0C1106FB1233994228BF6246F1
:100EF800202A28BF2022791E8B1A102BA261E361B9
:100F080005D9C1EB420110311023A161E3612362CD
:100F1800234BA668984586BF06FB07F35B080023AA
:100F2800636207FB0AF309FB03F26427B2FBF7F1DC
:100F380001F1FF3C07FB112EC2F1C80207FB0C228E
:100F4800964598BF6146B1F5807F28BF4FF4807100
:100F58005A1E521AD2B2802AE160226104D9803125
:100F6800891A1022E1602261626122680999564358
:100F7800734398420A4A8CBFC01A181AA0FB02028F
:100F8800A3FB0135834295412CBF0123002384F83C
:100F980028302046BDE8F08701003C000A00010027
:100FA80040420F0037B515464B22019300922B465D
:100FB8000446FFF72FFF204603B030BD8368024682
:100FC80023B3202B94BF002301235800D368012B9F
:100FD8001ED840F00400116901BB40F010005369AD
:100FE8000BBB40F040009369012B25D840F480608A
:100FF800D16931BB40F48050136A3BBB40F4804058
:10100800536A7F2B88BF40F4003070470120DDE72A
:10101800B3F5807F88BF40F00800DCE7802988BFEF
:1010280040F02000DBE7802B88BF40F08000994229
:1010380038BF40F48070D6E7202B88BF40F40060AA
:10104800D6E7102988BF40F40050D5E7102B88BF99
:1010580040F40040994238BF40F48030D0E710B5E2
:101068000446C06804F002FAB4F90600002802DB5E
:10107800002104F027F9204610BD10B50446B0F948
:10108800060000280ADB012104F01CF9B4F9060067
:10109800002104F081F90120607010BD0020FBE7F9
:1010A80070B50446C0680E4604F0E0F9E57C237C80
:1010B8009D4214BF0425032515FB06F5ADB2A58096
:1010C800284604F0CBF9E06028B12A46002104F054
:1010D80083FA668070BDA0800646FAE7F0B4FF295F
:1010E800C1F38107C1F38112C1F30115477401F0FF
:1010F80003078CBF002101210170C168C47C067CF4
:10110800C2740574877461B1A41B6142A2EB050522
:1011180061416A426A41914203D0F0BC4188FFF7BD
:10112800BFBFF0BC704700002DE9F84FC368044604
:10113800002B7DD004F06AF96369984201D260619E
:10114800F8E7C01AB0F5967FF4D372B64FF0E021F5
:10115800E368B4F804E0374A94F80080D1F814A0A2
:101168001268D1F818909E44D4E9066C13F8017BF4
:10117800B8F1000F29D03048304DB2FBF0F0B2FB87
:10118800F5F5DFF8C480B2FBF8F8451B0022A0EBA8
:101198000808013848618A6180221742C6F818C0D9
:1011A8000CBF28464046D1F818B08345FBD85208F2
:1011B800C6F828C004D1734530D213F8017B8022C9
:1011C800D1F818B08345FBD9E7E71D481D4DB2FBA0
:1011D800F0F0B2FBF5F5DFF874B0B2FBFBF2451B9B
:1011E800821A01384861C1F8188080200742C6F881
:1011F80018C00CBFA8469046D1F818B0C345FBD814
:101208004008C6F828C004D1734507D213F8017BFB
:101218008020D1F818B0C345FBD9E7E74FF0E023A9
:10122800C3F814A0C3F8189062B604F0EFF8606130
:10123800BDE8F88F5C00002000350C00A0252600D2
:10124800801A060080841E00D012130035B70C00E7
:1012580038B5437805460C4633B1B0F90600002886
:1012680002DB002104F02EF86B78EC803BB1012101
:10127800204604F027F80021204604F08DF8E2B259
:10128800182A0EDC1D4B53F82230C3F30313062B28
:101298002DD90023AB61194B53F8223003F00F030B
:1012A80006E004F0C003C02B07D00023AB610F2376
:1012B800134A52F82330EB6138BDC82AF5DC114BCC
:1012C80004F03F0153F821100C4B53F82130C3F3BD
:1012D8000313062B0BD90023AB6104F0C003C02B0A
:1012E800E5D1084B04F03F0453F82420D3E706491E
:1012F800182A51F82330AB61CDDDEEE7645F0008B2
:10130800345B0008405F00081C000020F8B5002589
:1013180004460F46457019460572C5604561164674
:10132800FFF7DCFE39462046FFF7BAFE2046314675
:10133800FFF78EFF2046F8BD43888B42F0B51FD9D2
:10134800077AC2F30746C2F30725D4B247B116FBA2
:1013580007F615FB07F514FB07F4360A2D0A240ACD
:1013680090F813C090F810E0C368E64509D101EB86
:1013780041011944037CCE54437CCD54837CCC5426
:10138800F0BD03EB8101120E1FB9D2B201F80C2097
:10139800F0E712FB07F2120AF8E7037A4A1CD2B206
:1013A800934270B518D0013B13F0FF03C4680CD00A
:1013B800FF291FBF110201F1FF31B1FBF3F39BB20B
:1013C80004BF4FF6FF71B1FBF3F325468688291B4E
:1013D80089B28E4201D8027270BD29785943C1F38F
:1013E800072105F8011BF1E77047000038B50F4BDE
:1013F8001A6805460AB9012038BD4FF47A73B3FB61
:10140800F2F30B4A1068B0FBF3F000F09BF80446C7
:101418000028F0D10F2DEED8024629464FF0FF30B4
:1014280000F03EF8034B20461D60E5E7140000205D
:101438005C0000201800002010B5032000F01EF802
:101448000020FFF7D3FF044618B9FFF7CDFF204669
:1014580010BD0124FBE70000034A0449136809682A
:101468000B441360704700BF58010020140000208F
:10147800014B1868704700BF580100200749CA6827
:1014880022F4E0620302120403F4E063120C134333
:1014980043F0BF6343F40033CB60704700ED00E0D6
:1014A800164B30B5DC68C4F30224C4F10703251DCC
:1014B800042B28BF0423062D4FF0FF358CBF033CB7
:1014C800002405FA03F321EA0303A54022EA0502F2
:1014D800A340002843EA0203ACBF00F16040084A79
:1014E8004FEA0313B8BF00F00F00DBB2AABF00F544
:1014F8006140135480F8003330BD00BF00ED00E0B8
:1015080014ED00E0002807DB044A4109012300F03C
:101518001F00834042F82130704700BF00E100E01F
:1015280000280CDB4309064900F01F002033012284
:10153800824041F82320BFF34F8FBFF36F8F70476E
:1015480000E100E00138B0F1807F0BD24FF0E023DA
:10155800054A5861F02182F823100020072298617B
:101568001A6170470120704700ED00E0002808DB91
:101578004309044900F01F0001226033824041F80A
:101588002320704700E100E0704708B5FFF7FCFF33
:1015980008BD704710B5044608B9012010BD437F47
:1015A80003F0FF0213B90277FFF7F3FF0223637713
:1015B8002379E3B92368134A5A619A6822F018021A
:1015C8009A6062792368D2B94FF0FF321A619A683B
:1015D800616922F060020A439A609A68A16922F060
:1015E80080020A439A60012363770020D6E7D4E992
:1015F8000212204600F008F80028E2D0CDE7226960
:10160800E4E700BFB71DC104CB0710B50BD51E23F7
:1016180021FA03F4E40708D5102A18D0102A09D8AB
:1016280062B1082A15D0012010E0013BF0D2102A3F
:10163800F4D1F8E7182AF6D1062BF4D800684161EE
:10164800836823F0180313438360002010BD072B21
:10165800F3E70F2BF1E710B5044640B102230371FD
:1016680002F0B6F9002020616071207110BD0120E0
:10167800FCE710B5012358B1046801F01001226895
:1016880003FA01F122EA010222600371002010BD71
:101698001846FCE790F82520022A034609D00422C0
:1016A800C2630120012283F82520002283F8242028
:1016B80070470268806C116821F00E0111600168A2
:1016C80021F480710160116821F001011160D3E9F2
:1016D800100202F01F0101228A404260D3E913215F
:1016E80051605A6D32B1116821F480711160D3E9EB
:1016F800162151600020D5E708B590F82530022B57
:1017080009D00423C3630022012380F8253080F820
:101718002420184608BD03681A6822F00E021A60D1
:101728001A6822F001021A60826C136823F480732D
:101738001360D0E9101303F01F02012393404B609C
:10174800D0E913325A60436D33B11A6822F48072BB
:101758001A60D0E916325A60012380F82530002338
:1017680080F82430836B03B198470020D2E700004B
:10177800044A5169014208B502D0506102F084FA66
:1017880008BD00BF00040140024A136843F4807397
:101798001360704700700040284B1A6818BB02F4A9
:1017A800C062B2F5806FD3F8802022F48072C3F84B
:1017B800802040D11A6822F4C06242F400721A6094
:1017C8001F4A126832214A431E49B2FBF1F2013224
:1017D8005969490500D522B95B6958052BD50320FD
:1017E8007047013AF4E7B0F5007F1FD102F4C062F8
:1017F800B2F5806FD3F8802042F48072C3F880205D
:1018080019D11A6822F4C06242F400721A600C4AB4
:10181800126832214A430B49B2FBF1F2013259698D
:101828004905D9D5002AD7D0013AF8E722F4C06291
:1018380042F480621A600020704700BF00700040C8
:101848005C00002040420F00024A936843F4804342
:1018580093607047007000402DE9F341044618B9C1
:10186800012002B0BDE8F0810368D90714D42368C9
:101878009A0758D42368190700F1A18023685A07EA
:1018880000F1C88023689A0600F12F81E369002BD4
:1018980040F05C810020E4E79F4DAB68EA6803F004
:1018A8000C030C2B0AD102F00303032B08D12B687D
:1018B8009B03DCD56368002BD9D1D1E7082BF5E76A
:1018C8006368B3F5803F10D12B6843F480332B60F5
:1018D800FFF7CEFD06462B689F03C8D4FFF7C8FD67
:1018E800801B6428F7D90320BBE7B3F5A02F04D1E8
:1018F8002B6843F480232B60E6E72A6822F48032C1
:101908002A602A6822F480222A60002BE0D1FFF79F
:10191800AFFD06462B689903A9D5FFF7A9FD801BE3
:101928006428F7D9DFE77C4DAB68EA6803F00C035D
:101938000C2B17D102F00303022B15D12B685A0583
:1019480002D5E368002B8BD06B68226923F0FE4335
:1019580043EA02636B60714B1868FFF747FD002884
:1019680088D07DE7042BE8E7E368BBB12B6843F434
:1019780080732B60FFF77CFD06462B685B0507D557
:101988006B68226923F0FE4343EA02636B6071E7E8
:10199800FFF76EFD801B0228EFD9A4E72B6823F41C
:1019A80080732B60FFF764FD06462B685F057FF5A3
:1019B80061AFFFF75DFD801B0228F6D993E76369E5
:1019C800554D9BB1D5F8943043F00103C5F89430D8
:1019D800FFF74EFD0646D5F894309B073FF54EAF0E
:1019E800FFF746FD801B0228F5D97CE7D5F894302F
:1019F80023F00103C5F89430FFF73AFD0646D5F801
:101A080094309F077FF53AAFFFF732FD801B02281D
:101A1800F5D968E7404DAB6DD80027D4AB6D43F0DE
:101A28008053AB65AB6D03F080530193019B012795
:101A38003B4E3368D9051BD5A368012B29D1D5F8AE
:101A4800903043F00103C5F89030FFF711FD41F2E3
:101A580088380646D5F890309B0740D5002F3FF4CC
:101A680011AFAB6D23F08053AB650BE70027DFE7C1
:101A7800336843F480733360FFF7FAFC80463368B9
:101A8800DA05D9D4FFF7F4FCA0EB08000228F6D950
:101A980029E7052B06D1D5F8903043F00403C5F8A3
:101AA8009030CCE7D5F8902022F00102C5F89020BC
:101AB800D5F8902022F00402C5F89020002BC4D15C
:101AC800FFF7D6FC41F288380646D5F890309907DA
:101AD800C4D5FFF7CDFC801B4045F6D903E7FFF7D7
:101AE800C7FC801B4045B5D9FDE6A3690A4DCBB1BB
:101AF800D5F8983043F00103C5F89830FFF7B8FCE3
:101B08000646D5F898309B073FF5C0AEFFF7B0FC06
:101B1800801B0228F5D9E6E60010024018000020D4
:101B280000700040D5F8983023F00103C5F89830CC
:101B3800FFF79EFC0646D5F898309F077FF5A6AEBE
:101B4800FFF796FC801B0228F5D9CCE6454DAA681C
:101B580002F00C020C2A51D0022B2B6823F0807360
:101B68002B603AD1FFF784FC06462B6899012ED4E6
:101B7800EA683D4B1340226A1343A26A43EA0223F0
:101B8800E26A43EAC263626A013A43EA0213226BD9
:101B98005208013A43EA4253626B5208013A43EA57
:101BA8004263EB602B6843F080732B60EB6843F073
:101BB8008073EB60FFF75CFC04462B689A013FF5E5
:101BC80069AEFFF755FC001B0228F6D98BE6FFF734
:101BD8004FFC801B0228C8D985E6FFF749FC04465C
:101BE8002B689B0104D4EA68204B1340EB6051E654
:101BF800FFF73EFC001B0228F2D974E6012B3FF4E4
:101C08002FAEEB68226A03F0030191427FF428AEFD
:101C1800616A03F0F0020139B2EB011F7FF420AED4
:101C2800A16A03F4FE42B2EB012F7FF419AEE16A18
:101C380003F07842B2EBC16F7FF412AE226B520808
:101C480003F4C001013AB1EB425F7FF409AE626B65
:101C58005208013A03F0C063B3EB426F14BF01208E
:101C68000020FEE5001002400C809F01FCFFEEFE04
:101C7800174B9A6802F00C02042A23D09A6802F0E3
:101C88000C02082A20D09A6802F00C020C2A1DD1F6
:101C9800D968DA68D868DB6801F00301C3F34163E7
:101CA8000329C2F30312C0F3062003F101030CBF9A
:101CB800084909495B000132B1FBF2F25043B0FB1D
:101CC800F3F0704704487047024870470020704797
:101CD8000010024000366E010024F4002DE9F8439C
:101CE8000E46054610B90120BDE8F8836D4A136811
:101CF80003F00F038B4245D3296811F001084CD13A
:101D08002A68910740F1A780674B12F0040F1EBFA5
:101D1800996841F4E0619960120741BF9A6822F41A
:101D28007C5242F4E0629A609A68A96822F0F00254
:101D38000A439A605B4C236803F00F03B34200F236
:101D480093802A68584C12F0040F40F0A3801307C0
:101D580006D5A3682A6923F4605343EAC203A36043
:101D6800FFF786FFA368514AC3F30313D35C03F05C
:101D78001F03D8404E4B18604E4B1868BDE8F84317
:101D8800FFF734BB136823F00F030B43136013688A
:101D980003F00F038B42A6D1AEE76F68424C032FC6
:101DA800236849D19B019ED5E368E26803F00303E9
:101DB800032BE3680CBF40484048C2F30312C3F347
:101DC80006230132B0FBF2F25343E268C2F34162E8
:101DD80001325200B3FBF2F3394A93421AD84FF05A
:101DE8000008A36823F003033B43A360FFF740FB0D
:101DF80041F288390746A3686A6803F00C03B3EB1D
:101E0800820F3FF47DAFFFF733FBC01B4845F2D983
:101E1800032069E7A36813F0F00F04D08807DED524
:101E2800AB68002BDBD1A36823F0F00343F08003F9
:101E3800A3604FF08008D4E7022F09D113F4003FC4
:101E48003FF451AFFFF714FF1D4B9842C7D9EAE79B
:101E580013F4806FF4E7B8F1800F01BF124A93685A
:101E680023F0F003936065E7236823F00F033343FF
:101E78002360FFF7FDFA41F288380746236803F02C
:101E88000F03B3423FF45DAFFFF7F2FAC01B4045C2
:101E9800F4D9BDE7A368E96823F4E0630B43A360C2
:101EA80055E700BF00200240001002407C5B00089C
:101EB8005C0000201800002000366E010024F400A9
:101EC80000B4C404054B064A9B68C3F30223D35CE1
:101ED800044A106803F01F03D840704700100240FE
:101EE800745B00085C000020054B064A9B68C3F33E
:101EF800C223D35C044A106803F01F03D84070471C
:101F080000100240745B00085C0000202DE9F341DA
:101F18000446006810F4002056D0984DAB6DD800E8
:101F280044D4AB6D43F08053AB65AB6D03F0805385
:101F38000193019B0126924F3B6843F480733B60F9
:101F4800FFF796FA80463B68D90531D5D5F8903029
:101F580013F4407320D0226C9A421DD0D5F89020FB
:101F6800D5F8903043F48033C5F89030D5F89030E8
:101F780022F4407123F48033D207C5F89030C5F8B5
:101F8800901009D5FFF774FA41F288380746D5F85A
:101F980090309B0740F1EB80D5F89030226C23F409
:101FA80040731343C5F89030002008E00026C2E7CC
:101FB800FFF75EFAA0EB08000228C4D903201EB17F
:101FC800AB6D23F08053AB652368DE0708D56B49FA
:101FD8006568D1F8882022F003022A43C1F88820D6
:101FE8009D0708D56549A568D1F8882022F00C021C
:101FF8002A43C1F88820590708D56049E568D1F80F
:10200800882022F030022A43C1F888201A0708D510
:102018005A492569D1F8882022F0C0022A43C1F81C
:1020280088209F0608D555496569D1F8882022F48B
:1020380040622A43C1F888205E0608D54F49A56941
:10204800D1F8882022F440522A43C1F888201D067E
:1020580008D54A49E569D1F8882022F440422A4344
:10206800C1F88820D90508D54449256AD1F88820BF
:1020780022F440322A43C1F888209A0508D53F49FE
:10208800656AD1F8882022F440222A43C1F88820C2
:102098005F050FD53949A56AD1F8882022F4401286
:1020A8002A43C1F88820B5F5801F02BFCA6842F4E8
:1020B8008012CA601E050FD53049E56AD1F888201C
:1020C80022F440022A43C1F88820B5F5800F02BFE8
:1020D800CA6842F48012CA60DD040FD52749256B0F
:1020E800D1F8882022F040722A43C1F88820B5F13F
:1020F800807F02BFCA6842F48012CA6099040FD573
:102108001E49656BD1F8882022F040622A43C1F845
:102118008820B5F1006F02BFCA6842F48012CA6015
:102128005A040FD51549A56BD1F8882022F04062D2
:102138002A43C1F88820B5F1006F02BFCA6842F48B
:102148008012CA601B040FD50C4AE16BD2F88830A4
:1021580023F040530B43B1F1805FC2F8883003D1BC
:10216800D36843F48033D36002B0BDE8F081FFF751
:102178007FF9C01B40457FF60AAF1FE700100240F9
:102188000070004070477047036870B5DD681E69CD
:10219800B20704460ED5A9070CD56FF002021A61E2
:1021A800012202779B699A0700F0A48001F083FB63
:1021B80000232377730711D568070FD523686FF0BD
:1021C80004021A61022222779B6913F4407F204699
:1021D80000F0968001F06FFB00232377310710D5BC
:1021E8002A070ED523686FF008021A6104222277A5
:1021F800DB699B07204600F0898001F05CFB002327
:102208002377F10610D5EA060ED523686FF0100281
:102218001A6108222277DB6913F4407F20467BD0BD
:1022280001F049FB00232377F30708D5E80706D513
:1022380023686FF001021A61204601F019FB16F4B9
:10224800025F08D0290606D523686FF402521A6186
:10225800204600F0EEF8F20508D52B0606D52368CF
:102268006FF480721A61204600F0E4F8700608D511
:10227800690606D523686FF040021A612046FFF709
:1022880082FFB20608D5AB0606D523686FF0200298
:102298001A61204600F0CCF8F00208D5E90206D50C
:1022A80023686FF480121A61204600F0C4F8B20265
:1022B80008D5AB0206D523686FF400121A612046D0
:1022C80000F0BAF8700208D5690206D523686FF4E1
:1022D80080021A61204600F0B0F8320222D52B02A3
:1022E80020D523686FF4000220461A61BDE87040CB
:1022F80000F0A4B801F0DDFA2046FFF743FF57E7E6
:1023080001F0D7FA2046FFF73DFF65E701F0D1FA63
:102318002046FFF737FF72E701F0CBFA2046FFF7B8
:1023280031FF7FE770BD0000274A036890420ED056
:10233800B0F1804F0BD0A2F59432904207D002F54D
:102348008062904203D002F59632904208D14A68E2
:1023580023F070031343CA6823F4407313430AE05D
:102368001A4A9042F7D002F580629042F3D002F503
:1023780080629042EFD04A6923F0800313430360E0
:102388008B68C3620B6883620F4B98420FD003F5CA
:10239800006398420BD003F54063984207D003F5D9
:1023A8008063984203D003F58063984201D10B699A
:1023B8000363012343610369DB0742BF036923F019
:1023C80001030361704700BF002C01400040014039
:1023D80010B5044650B390F83D3003F0FF021BB926
:1023E80080F83C2001F0D0FF0223206884F83D30BB
:1023F800211DFFF799FF012384F84830002084F855
:102408003E3084F83F3084F8403084F8413084F816
:10241800423084F8433084F8443084F8453084F8F6
:10242800463084F8473084F83D3010BD0120FCE781
:102438007047704770477047704770477047000093
:1024480010B5026852E8003F23F4907342E8003167
:1024580002680029F5D10F4C02F1080353E8003F48
:10246800234002F1080C4CE800310029F4D1C36E76
:10247800012B07D152E8003F23F0100342E8003156
:102488000029F7D12023C0F88C300023C3664367A6
:1024980010BD00BFFEFFFFEF026852E8003F23F0C7
:1024A800800342E8003102680029F5D152E8003F74
:1024B80043F0400342E800310029F7D17047D0F8D3
:1024C8008820212A034611D1B0F8562092B20AB9C1
:1024D800FFF7E2BF026D016812F8010B88621A6506
:1024E800B3F85620013A92B2A3F856207047D0F8B4
:1024F8008820212A034613D1B0F8562092B20AB98F
:10250800FFF7CABF1A6D006832F8021BC1F3080151
:1025180081621A65B3F85620013A92B2A3F85620A0
:102528007047D0F88830212B10B51BD1B0F86A203D
:10253800C2B1B0F85610036889B2A1B903F1080214
:1025480052E8002F22F4000203F1080040E80021BD
:102558000029F3D153E8002F42F0400243E800215C
:102568000029F7D110BDD96909060AD5016D11F8FE
:10257800014B9C62B0F856300165013B9BB2A0F854
:102588005630013A92B2D3E7D0F88830212B10B5F3
:102598001BD1B0F86A20C2B1B0F85610036889B2EE
:1025A800A1B903F1080252E8002F22F4000203F156
:1025B800080040E800210029F3D153E8002F42F039
:1025C800400243E800210029F7D110BDD969090666
:1025D8000CD5016D31F8024BC4F308049C62B0F8C5
:1025E80056300165013B9BB2A0F85630013A92B2D1
:1025F800D1E77047D0F88830202B10B544D1002996
:1026080044D0002A42D0A0F85620A0F85420426EA8
:1026180001650023C0F89030B2F1005F4FF021034C
:10262800C0F888300268836819D1B3F5805F14D187
:102638000469174B1749002C18BF0B46836702F132
:10264800080353E8003F43F4000302F1080040E8A0
:1026580000310029F3D1002010BD0E4BEEE7B3F591
:10266800805F0FD104690C4B0C49002C18BF0B4636
:10267800836752E8003F43F0800342E800310029B5
:10268800F7D1E8E7054BF3E70220E5E70120E3E7A8
:10269800912500082B250008F7240008C724000806
:1026A80008B5806A0023A0F85E3001F03FFF08BD3E
:1026B800704700000368D9691A682DE9F04140F6AF
:1026C8000F0631429D68044610D18E0640F197806E
:1026D80002F0200605F080573E4300F09080436FDB
:1026E800002B00F08580BDE8F0411847A84EA948A6
:1026F8002E401040304300F08280CF0709D5D00526
:1027080007D501201862D4F8900040F00100C4F801
:1027180090008F0709D5E80707D502201862D4F87A
:10272800900040F00400C4F890004F0709D5E8076E
:1027380007D504201862D4F8900040F00200C4F8CD
:1027480090000F070BD502F02000304307D0082077
:102758001862D4F8900040F00800C4F890000E0504
:102768000AD5500108D54FF400601862D4F89030AB
:1027780043F02003C4F89030D4F89030002B37D0C1
:102788008B0609D502F0200205F080552A4303D0B4
:10279800636F0BB1204698472668D4F89020B36839
:1027A80002F0280203F0400353EA0205204621D034
:1027B800FFF746FEB3685F0617D5226802F10803E3
:1027C80053E8003F23F04003083242E80031002973
:1027D800F3D1D4F8800040B16F4B8363FEF78CFFD0
:1027E80030B1D4F88000836B7DE7204601F09EFE6F
:1027F800BDE8F08101F09AFEC4F89050F8E7E06E69
:10280800012840F08D80CE0640F18A80D00640F144
:10281800878010221A629968B4F85C20490651D55D
:10282800D4F880100868416889B2002942D09142E2
:1028380040D2A4F85E10026892062FD453E8002F05
:1028480022F4807243E800210029F7D103F108023D
:1028580052E8002F22F0010203F1080040E80021AD
:102868000029F3D103F1080252E8002F22F04002B8
:1028780003F1080040E800210029F3D12022C4F820
:102888008C20E16653E8002F22F0100243E8002173
:102898000029F7D1D4F88000FEF7FCFE0223236755
:1028A800B4F85E30B4F85C10C91A89B22046FFF754
:1028B800FFFE9DE791429BD103689B0698D50223B2
:1028C8002367F3E7B4F85E10B4F85E0080B289B20B
:1028D80000288DD0521A91B2002989D053E8002FD0
:1028E80022F4907243E800200028F7D12B4D03F121
:1028F800080252E8002F2A4003F1080646E80020A3
:102908000028F4D12022C4F88C206067E06653E8E0
:10291800002F22F0100243E800200028F7D1CEE76C
:10292800CF0209D56E0207D54FF4801220461A62ED
:10293800BDE8F04101F05EBE08060BD502F080004C
:1029480005F40005284305D0A36F002B3FF450AFD2
:102958002046C8E64F0611D556060FD553E8002F76
:1029680022F0400243E800210029F7D12023C4F8CF
:102978008830A167204601F0D5FD39E70D020FD553
:1029880050000DD52046BDE8F04100F0EABD00BF7B
:102998000100001020010004A9260008FEFFFFEF37
:1029A800CB017FF525AF002ABFF622AF2046BDE850
:1029B800F04100F0D5BD00BFD0F88C20222A08B520
:1029C800036857D15B6AB0F86010826D0B401370D2
:1029D800836D01338365B0F85E30013B9BB2A0F88C
:1029E8005E30B0F85E309BB2002B42D1026852E8EC
:1029F800003F23F4907342E8003103680029F5D1C1
:102A080003F1080252E8002F22F0010203F1080C3A
:102A18004CE800210029F3D12022C0F88C20184A64
:102A280041679342016705D1C26E012A0ED001F0B9
:102A380075FD1EE05A681102F6D553E8002F22F002
:102A4800806243E800210029F7D1EDE70022C26641
:102A580053E8002F22F0100243E800210029F7D1A3
:102A6800DA69B0F85C10D20644BF10221A62FFF788
:102A78001FFE08BD9A6942F008029A61F9E700BF93
:102A880000800040D0F88C20222A08B5036854D171
:102A9800596AB0F860201140826D22F8021B8265E5
:102AA800B0F85E20013A92B2A0F85E20B0F85E203D
:102AB80092B2002A40D153E8002F22F4907243E8E2
:102AC80000210029F7D103F1080252E8002F22F073
:102AD800010203F1080C4CE800210029F3D120225F
:102AE800C0F88C20174A41679342016705D1C26E2E
:102AF800012A0ED001F012FD1EE05A681102F6D527
:102B080053E8002F22F0806243E800210029F7D122
:102B1800EDE70022C26653E8002F22F0100243E8D6
:102B280000210029F7D1DA69B0F85C10D20644BF59
:102B380010221A62FFF7BCFD08BD9A6942F008022C
:102B48009A61F9E70080004003682DE9F047DD69E4
:102B5800D3F800809E68D0F88C20222A044640F0E2
:102B6800B780B0F86830002B00F08D80B0F8607046
:102B78004FF0000906F001064FF0040AAB0640F1D9
:102B880082802368A26D5B6A3B401370A36D01339A
:102B9800A365B4F85E30013B9BB2A4F85E302368AD
:102BA800DD6968072AD0E9070AD518F4807F07D0BD
:102BB80001221A62D4F8902042F00102C4F8902051
:102BC800AA0708D53EB102221A62D4F8902042F032
:102BD8000402C4F89020680708D53EB1C3F820A0C5
:102BE800D4F8903043F00203C4F89030D4F8903011
:102BF80023B1204601F09AFCC4F89090B4F85E30F6
:102C08009BB2002BBAD1226852E8003F23F48073AC
:102C180042E8003123680029F5D1304803F1080261
:102C280052E8002F024003F1080545E80021002979
:102C3800F4D12022C4F88C20294A61679342216785
:102C48000AD05A68110207D553E8002F22F0806293
:102C580043E800210029F7D1E26E012A34D100228D
:102C6800E26653E8002F22F0100243E80021002911
:102C7800F7D1DA69B4F85C10D20644BF10221A62A0
:102C88002046FFF715FDB4F85E309BB2D3B1B4F817
:102C980068209A4216D9226802F1080353E8003FD7
:102CA80023F08053083242E8003122680029F2D12B
:102CB8000C4B636752E8003F43F0200342E80031C1
:102CC8000029F7D1BDE8F087204601F027FCDAE7B4
:102CD8009A6942F008029A61F4E700BFFEFFFFEF2D
:102CE80000800040C129000803682DE9F047DD692C
:102CF800D3F800809E68D0F88C20222A044640F041
:102D0800B480B0F86830002B00F08A80B0F86070AA
:102D18004FF0000906F001064FF0040AAB067FD514
:102D28002368A26D596A394022F8021BA265B4F8DB
:102D38005E20013A92B2A4F85E20DD6968072AD0C5
:102D4800E9070AD518F4807F07D001221A62D4F85F
:102D5800902042F00102C4F89020AA0708D53EB19D
:102D680002221A62D4F8902042F00402C4F890209B
:102D7800680708D53EB1C3F820A0D4F8903043F0D6
:102D88000203C4F89030D4F8903023B1204601F003
:102D9800CDFBC4F89090B4F85E309BB2002BBDD147
:102DA800226852E8003F23F4807342E80031236828
:102DB8000029F5D12F4803F1080252E8002F0240FC
:102DC80003F1080545E800210029F4D12022C4F8C0
:102DD8008C20294A6167934221670AD05A681102F8
:102DE80007D553E8002F22F0806243E8002100292C
:102DF800F7D1E26E012A34D10022E26653E8002FAF
:102E080022F0100243E800210029F7D1DA69B4F86A
:102E18005C10D20644BF10221A622046FFF748FC15
:102E2800B4F85E309BB2D3B1B4F868209A4216D990
:102E3800226802F1080353E8003F23F08053083268
:102E480042E8003122680029F2D10C4B636752E84E
:102E5800003F43F0200342E800310029F7D1BDE8E4
:102E6800F087204601F05AFBDAE79A6942F0080237
:102E78009A61F4E7FEFFFFEF008000408D2A00080A
:102E880010B590F88430012B1ED0012380F88430CF
:102E98002423C0F88830026852E8003F23F00C036E
:102EA80042E800340168002CF5D151E8002F42F0C7
:102EB800080241E80023002BF7D12022C0F888201F
:102EC80080F88430184610BD0220FCE710B590F851
:102ED8008430012B1ED0012380F884302423C0F8CD
:102EE8008830026852E8003F23F00C0342E80034BF
:102EF8000168002CF5D151E8002F42F0040241E8A6
:102F08000023002BF7D12022C0F8882080F88430D5
:102F1800184610BD0220FCE7D0F88820D0F88C00B5
:102F280010437047F8B50446C0692169A268236850
:102F38000A4361691D680A437B49024329400A43E1
:102F48001A605A68E16822F440520A435A60774A84
:102F5800A16993421CBF226A11439A6822F06E420B
:102F680022F430620A439A60DA6A616A22F00F0238
:102F78000A43DA626E4A934230D16E4BD3F88830F6
:102F880003F00303022B00F0CA80032B00F0B78084
:102F9800012B00F0BB80B0F5004F40F0BD80FEF77C
:102FA800A3FF002866D06168634B626A33F8122079
:102FB800B0FBF2F24B0803EB42034FF6EF72B3FBA0
:102FC800F1F3A3F1100191421FD823F00F022168F9
:102FD80092B2C3F342031343CB604BE0574A934288
:102FE80015D1544BD3F8883003F00C03082B00F0AC
:102FF800968008D8002B40F08980B0F5004F67D143
:10300800FEF760FFCDE70C2B79D0012033E04C4A66
:10301800934209D1474BD3F8883003F03003202B73
:103028007DD0E7D9302BEFE7464A934209D1414B8F
:10303800D3F8883003F0C003802B70D0DAD9C02BC6
:10304800E2E73A4A9342E0D13A4BD3F8883003F4A6
:103058004063B3F5006F15D003D843B9FEF732FFCC
:1030680007E0B3F5406FD0D14FF400400BE0FEF716
:10307800FFFD40B900204FF00113A3660023C4E907
:103088001D33F8BD304865682B4B626A05EB450176
:1030980033F81220B0FBF2F39942B6D8B3EB053FF0
:1030A800B3D800231946FDF79BF8002319460646B6
:1030B8004FF4807768082A46E6FB0701FDF790F889
:1030C800224BA0F540729A429FD82368D860D1E776
:1030D800FEF7F8FE0028CDD06368616A164A32F818
:1030E8001120B0FBF2F000EB5300B0FBF3F04FF609
:1030F800EF73A0F11002E6E7FEF7BAFDEAE7B0F5D4
:10310800004F3FF450AF4FF40040E5E7B0F5004FF3
:10311800F2D1FEF7ADFD44E7FEF7E6FEDAE7B0F5DB
:10312800004F0948D8D13EE7F369FFCF008000403F
:1031380000380140001002401C5B000800440040B9
:1031480000480040004C00400024F400FFFC0F0041
:10315800836A1A0710B506D50168846B4A6822F499
:10316800004222434A60DC0706D50168C46A4A68FF
:1031780022F4003222434A60990706D50168046B9D
:103188004A6822F4803222434A605A0706D5016809
:10319800446B4A6822F4802222434A60DC0606D542
:1031A8000168C46B8A6822F4805222438A609906B7
:1031B80006D50168046C8A6822F4005222438A60AA
:1031C8005A060FD50168446C4A6822F480122243DB
:1031D800B4F5801F4A6005D14A68846C22F4C002A5
:1031E80022434A601B0606D50268C16C536823F463
:1031F80000230B43536010BD2DE9F843DDF8209000
:1032080004460D46174698462268D36935EA0303F3
:103218000CBF01230023BB4201D0002022E0B9F1FA
:10322800FF3FF2D0FEF724F9A0EB0800484529D863
:10323800B9F1000F26D021680B685A07E4D5802D14
:10324800E2D0402DE0D0CE6916F008060CD0082553
:1032580020460D62FFF7F4F80023C4F8905084F874
:1032680084300120BDE8F883CB691B05CCD54FF429
:1032780000630B622046FFF7E3F82023C4F8903080
:1032880084F884600320EDE773B504460026C0F88F
:103298009060FEF7EDF823681B681A0705461CD5F1
:1032A8006FF07E430093324603464FF400112046E8
:1032B800FFF7A2FF88B1226852E8003F23F080039D
:1032C80042E800310029F6D12023C4F888300320D1
:1032D800002384F8843002B070BD23681B685B0744
:1032E80024D56FF07E43009300222B464FF48001D3
:1032F8002046FFF781FFC8B1226852E8003F23F457
:10330800907342E8003122680029F5D102F10803E0
:1033180053E8003F23F0010302F1080040E80031C0
:103328000029F3D12023C4F88C30D0E720230020D3
:10333800C4F88830C4F88C30E0662067C8E710B558
:10334800044650B3D0F888301BB980F88430FFF7B2
:1033580050F922682423C4F88830136823F0010345
:103368001360A36A13B12046FFF7F2FE2046FFF769
:10337800D9FD012811D023685A6822F490425A6076
:103388009A6822F02A029A601A6842F001022046DE
:103398001A60BDE81040FFF777BF012010BD10B5D7
:1033A800044670B3D0F888301BB980F88430FFF732
:1033B80020F922682423C4F88830136823F0010315
:1033C8001360A36A13B12046FFF7C2FE2046FFF739
:1033D800A9FD012815D023685A6822F490425A6042
:1033E8009A6822F022029A609A6842F008029A606B
:1033F8001A6842F0010220461A60BDE81040FFF743
:1034080043BF012010BD000030B581658168A0F878
:103418005C200023B1F5805FA0F85E20436731D1BE
:103428000369002B40F2FF1318BFFF23A0F8603098
:103438000023C0F890302223C0F88C30016801F1D5
:10344800080353E8003F43F00103083141E8003422
:103458000368002CF2D1456E84680169B5F1005FFC
:1034680035D1B0F86850954231D8B4F5805F29D18C
:10347800C1B1264A426753E8002F42F4807243E8FC
:10348800002121E029B90369002B0CBFFF237F230A
:10349800CCE7B1F1805FC9D10369002B0CBF7F2352
:1034A8003F23C3E71A4A426703F1080252E8002F94
:1034B80042F0805203F1080040E800210029F3D1CE
:1034C800002030BD114A42670029D4D1ECE7B4F599
:1034D800805F16D151B10F4A426753E8002F42F47A
:1034E800907243E800210029F7D1E9E70A4A4267C8
:1034F80053E8002F42F0200243E800210029F7D1C9
:10350800DEE7044A42670029E7D1F1E7512B0008BA
:10351800F12C0008C12900088D2A000838B5D0F818
:103528008C30202B16D1B9B1B2B100230468C36620
:103538000A4B9C420AD063681B0207D554E8003F37
:1035480043F0806344E80035002DF7D1FFF75CFFB6
:10355800002038BD0220FCE70120FAE70080004087
:103568007047704790F88430012B0FD0012380F802
:103578008430016851E8002F42F0020241E800233C
:10358800002BF6D180F88430184670470220704727
:1035980090F88430012B0FD0012380F88430016823
:1035A80051E8002F22F0020241E80023002BF6D157
:1035B80080F884301846704702207047836810B539
:1035C80004462BB10322014698470023C4E902337D
:1035D80010BD836810B5044613B10322014698470D
:1035E800204610BD1F4A9042034627D0B0F1804FB5
:1035F80026D0A2F59432904224D002F580629042FF
:1036080022D002F50062904220D002F580629042FA
:103618001ED002F5903290421CD002F540629042D2
:103628001AD04FF6FF70104A934217D00F4A9342B0
:1036380016D04FF6FF73984213D1FEE70020F2E749
:103648000120F3E70220F4E70320704704207047C5
:1036580005207047062070470720704708207047EC
:1036680009207047002C01400044014000480140F7
:10367800014670B5044651F8100FFFF7B3FF054631
:10368800084600F083FD094A002342F8253004F17A
:103698006406E36004F1B405B54204D0103D284641
:1036A800FFF797FFF8E7204670BD00BF5C010020D8
:1036B800F8B504460846FFF795FF236903B1FEE70E
:1036C8001B4D84F82C3004F10C0245F8202004F13D
:1036D80010060E22C4E90C33C4E90E33C4E91033D2
:1036E800C4E917232161A36484F84C3084F84D3071
:1036F800E460304600F0A8FC04F1640504F1B40766
:1037080028461035FFF75AFFBD42F9D10023C4E916
:1037180000334FF6FF72C4E90632C4E90833A360E8
:1037280063618023A3623046BDE8F840FEF750BECF
:103738005C01002010B5074C206810B10430FEF77A
:1037480023FD206A20B1BDE810400430FEF71CBDFF
:1037580010BD00BF5C010020034B186810B1043095
:10376800FEF712BD704700BF5C010020034B58688C
:1037780010B10430FEF708BD704700BF5C0100209F
:10378800034B986810B10430FEF7FEBC704700BFC9
:103798005C010020034BD86810B10430FEF7F4BC7C
:1037A800704700BF5C010020034B186910B104305A
:1037B800FEF7EABC704700BF5C010020034B586964
:1037C80010B10430FEF7E0BC704700BF5C01002078
:1037D800034B986910B10430FEF7D6BC704700BFA0
:1037E8005C010020FFF7F4BF034BD86910B1043027
:1037F800FEF7CABC704700BF5C010020034B586A43
:1038080010B10430FEF7C0BC704700BF5C01002057
:103818000022C0E90022C0E902227047F8B5044638
:103828000E4600F1640500F1B40728461035FFF78D
:10383800EFFFBD42F9D10023204623613146FFF74F
:1038480037FF2046F8BD826810B50AB902F01AF9A8
:10385800BDE81040C368184708B500B9FEE700F096
:10386800F1FB0068C36E13B16430FFF7ECFF08BDCD
:10387800FFF7F2BF10B500B9FEE7037F013B072B46
:1038880010D8DFE803F004140F100F0F0F120124F3
:1038980000F0D8FB240100686434204483680BB12D
:1038A800FFF7D1FF10BD0324F2E70424F0E7022458
:1038B800EEE7FFF7DFBFFFF7DDBF01F0CFBD01F097
:1038C800CDBD01F0D3BD01F0D1BD000088B0062800
:1038D8005BD8DFE800F004121E2A36424E002C4B5B
:1038E800DA6C42F00102DA64DB6C03F00103019345
:1038F800019B4FF0904008B07047254B2548DA6C83
:1039080042F00202DA64DB6C03F002030293029BCA
:10391800F1E71F4B2048DA6C42F00402DA64DB6CF2
:1039280003F004030393039BE5E7194B1B48DA6C88
:1039380042F00802DA64DB6C03F008030493049B8A
:10394800D9E7134B1648DA6C42F01002DA64DB6CE4
:1039580003F010030593059BCDE70D4B1148DA6C76
:1039680042F02002DA64DB6C03F020030693069B26
:10397800C1E7074B0C48DA6C42F04002DA64DB6CB2
:1039880003F040030793079BB5E70020B3E700BFA8
:10399800001002400004004800080048000C0048DD
:1039A80000100048001400480018004808B50749EE
:1039B80000F016FBC0F3C430012802D0022802D060
:1039C800FEE7002008BD1020FCE700BF1C5F0008D0
:1039D8000368104A93420DD10F4BDA6A42F48032E1
:1039E800DA62DA6A22F48032DA62DA6C22F480323D
:1039F800DA647047094A9342FBD1074BDA6A42F40A
:103A08008022DA62DA6A22F48022DA62DA6C22F43C
:103A18008022EDE70008005000100240001000501E
:103A280010B5094986B0044600F0B8FA019048B1CB
:103A38002046FFF7BBFF014601A8FDF71AFE01A8C3
:103A4800FDF709FE06B010BD1C5F0008F8B5134964
:103A5800134F064600F0A2FAFFF7C4FD57F82030CE
:103A6800054673B9B420FFF728FF0C4904463046D1
:103A780000F094FA01462046FFF7D0FE57F82530AB
:103A88001C601C6844B12046FFF7F2FD2046B421B3
:103A9800BDE8F840FFF717BFF8BD00BFA05C0008FD
:103AA8005C01002037B5FDF7E3FC4FF0E025044644
:103AB800AB690093FDF7DCFCAB690193696984424B
:103AC80001F101014FF47A7308D0019A8A1A5A4316
:103AD800B2FBF1F203FB002003B030BD009A8A1A52
:103AE8005A43B2FBF1F203FB0420F5E7FDF7C0BC33
:103AF800704708B5FDF7B0FCFDF747FDFFF7F8FF85
:103B080008BD000010B590B038220021044602A874
:103B180001F062FDFDF738FE2C4B9A6D42F480628D
:103B28009A659A6D02F480620192019A032C11D869
:103B3800DFE804F00219283DD3F8942042F001028E
:103B4800C3F89420D3F894309C0703D40823029335
:103B580001230793029B002B36D002A8FDF77CFEB9
:103B6800002831D0FEE71A6842F480721A601B6898
:103B78005905EFD4022302934FF480724023CDE914
:103B88000523E7E7D3F8902042F00102C3F890201C
:103B9800D3F890209407DDD4D3F8902022F01802AF
:103BA800C3F890200423029301230493D2E71A68F0
:103BB80042F480321A601B6899035EBF01224FF4F9
:103BC8008033CDE90223C5E710B010BD00100240D4
:103BD800704700000F4B9A6D42F0805284B09A658E
:103BE8009A6D02F080520192019A1A6E42F0010217
:103BF8001A661A6E02F001020292029A9A6C42F454
:103C080080529A649B6C03F480530393039B04B023
:103C1800704700BF001002400C4BD3F8FC20D201C3
:103C28005EBFD3F8FC2042F08072C3F8FC20084B3A
:103C380000225A601A6842F001021A6000BF00BFF1
:103C480000BF5868B0FA80F04009704700ED00E006
:103C5800001000E008B5FFF7BDFFFDF7F5FDFFF721
:103C6800DBFFFDF7E9FBFFF7B3FF00F0CBFFBDE893
:103C780008400148FDF78EBC380000200023C0E949
:103C88000033C0E9023370470023012803F1010221
:103C98000AD11422DBB25343054A181D1044816827
:103CA80029B11A441369184740081346EDE77047CD
:103CB800840100200120FDF75BBD0220FDF758BDFF
:103CC8000420FDF755BD0820FDF752BD1020FDF773
:103CD8004FBD08B52020FDF74BFD4020FDF748FDFE
:103CE8008020FDF745FD4FF48070FDF741FDBDE8EC
:103CF80008404FF40070FDF73BBD38B506244FF47B
:103D08008065A8B2FDF734FD013C4FEA4505F8D1BE
:103D180038BD0000344A104608B5062300F8043BB5
:103D2800FFF7ACFF072302F118001375FFF7A6FF92
:103D3800082302F12C0082F82830FFF79FFF09239F
:103D480002F1400082F83C30FFF798FF0A2302F1A5
:103D5800540082F850301721FFF790FF02F16800F5
:103D680082F86410FFF78AFF02F17C0082F878106D
:103D7800FFF784FF02F1900082F88C10FFF77EFFB6
:103D880002F1A40082F8A010FFF778FF02F1B80052
:103D980082F8B4102821FFF771FF02F1CC0082F8F5
:103DA800C810FFF76BFF02F1E00082F8DC10FFF7A4
:103DB80065FF02F1F40082F8F010FFF75FFF02F5EB
:103DC800847082F80411FFF759FF02F58E7082F8AB
:103DD8001811FFF753FFBDE8084002F5987082F804
:103DE8002C11FFF74BBF00BF8401002038B5054CEC
:103DF800A4F5A075143C201DFFF7EBFBAC42F9D1EC
:103E080038BD00BFC402002030B591FAA1F391FA81
:103E1800A1F1B3FA83F3C4685B000325B1FA81F119
:103E280005FA03F3490024EA03038A401A43C260EF
:103E380030BD431C04D00C3151F80C3C5A1C01D144
:103E480000207047834201F10C01F5D10120704731
:103E5800F8B5471C06460D4600D1FEE700F00F02F4
:103E6800414BC0F3031053F82240FFF72FFD94FA9B
:103E7800A4F3B3FA83F3876803225B0002FA03F31F
:103E880094FAA4F2B2FA82F227EA03075200032353
:103E980093403B4305F007018360032903D8DFE81B
:103EA80001F05F612C03FEE7032394FAA4F2B2FA4F
:103EB80082F206685200032707FA02F226EA02068F
:103EC80094FAA4F2B2FA82F25200934001393343D1
:103ED8000129036005D843682A074CBF2343A3433D
:103EE8004360C5F30112012A02D0022A18BF00223A
:103EF8002146BDE8F840FFF787BFC5F306227F2AB1
:103F080001D10223D1E7360716D5230A93FAA3F67F
:103F1800B6FA86F6476A93FAA3F3B6004FF00F0C89
:103F2800B3FA83F30CFA06F69B0027EA060602FAB0
:103F380003F333434362E4E794FAA4F3B3FA83F355
:103F4800066A9B000F2707FA03F326EA030694FA8A
:103F5800A4F3B3FA83F39B009A4032430262D0E79A
:103F68000023A2E70123A0E7345B0008431C06D125
:103F78007047834202D18968FFF76ABF0C310B682A
:103F88005A1CF6D1FEE70B685A1C01D10020704775
:103F9800834201D1486870470C31F4E7431C01D0D3
:103FA800FFF7F1BF002070474B6813B94FF0FF309F
:103FB8007047834201D1086870470C31F4E708B1B3
:103FC800FFF7F2BF4FF0FF30704703460868421C06
:103FD80000D17047984201D1886870470C31F5E7E5
:103FE800431C01D0FFF7F1BF704703468B420846D8
:103FF80004D01BB100290CBF1846002070470000F0
:104008000E4AD2F8883043F47003C2F888300C4B5B
:10401800196841F4A0611960012199604FF4A06109
:1040280019604FF48051D9600021996140F23B71C9
:1040380019624FF000639360704700BF00ED00E025
:1040480000100240043870470368464A93428AB019
:1040580019D102F56442116E41F400611166126EC5
:1040680002F400620092009A3F4A934218D13F4BF3
:104078009A6D42F020029A659B6D03F02003059328
:10408800059B0AB07047B3F1804F17D1374A916D3D
:1040980041F001019165926D02F001020192019ACD
:1040A800334A934218D1314B1A6E42F400521A66C1
:1040B8001B6E03F400530693069BE2E72D4A9342D6
:1040C80018D102F50332916D41F002019165926DAC
:1040D80002F002020292029A274A934218D1234B15
:1040E8001A6E42F480321A661B6E03F4803307930B
:1040F800079BC6E7214A934218D102F50232916D17
:1041080041F004019165926D02F004020392039A52
:104118001B4A934218D1154B1A6E42F400321A66A4
:104128001B6E03F400330893089BAAE7154A9342D1
:104138009AD102F50032916D41F010019165926DAE
:1041480002F010020492049A0F4A934299D1074B45
:104158001A6E42F480221A661B6E03F480230993B8
:10416800099B8EE7002C014000140040001002401B
:1041780000340140000400400040014000080040B5
:1041880000440140001000400048014003682B4AE9
:1041980093420ED12A490A6E22F400620A66294A1D
:1041A80093420ED102F5FE32936D23F020039365FE
:1041B8007047B3F1804F0ED121498A6D22F0010278
:1041C8008A65214A93420ED102F55C42136E23F4AC
:1041D8000053136670471D4A93420DD118498A6DE2
:1041E80022F002028A651A4A93420DD102F5504222
:1041F800136E23F48033ECE7164A93420DD110492D
:104208008A6D22F004028A65134A93420DD102F5A1
:104218004C42136E23F40033DBE7104A9342BED1BD
:1042280007498A6D22F010028A650D4A9342D1D15E
:1042380002F54842136E23F48023CAE7002C01409C
:104248000010024000140040003401400004004007
:1042580000400140000800400044014000100040B8
:1042680000480140431C2AD01E4B98422AD010D83F
:10427800A3F54063984227D007D8B0F1804F25D0E6
:10428800A3F58063984223D0FEE7174B984221D0CC
:10429800FAE7164B98421FD008D8A3F5A0539842C6
:1042A8001ED003F50063984218D0EDE7104B9842F2
:1042B80016D003F580639842E6D11A2070476FF054
:1042C8000D007047372070471E2070471C2070472C
:1042D8001D20704736207047182070472C207047E3
:1042E80019207047001400400010004000400140B1
:1042F80000440140431C2AD01F4B98422AD014D8AE
:10430800A3F59233984227D007D8B0F1804F25D033
:10431800A3F58063984223D0FEE7184B984221D03A
:1043280003F5806398421FD0F6E7154B98421DD0DD
:1043380008D8A3F5805398421AD003F540639842F1
:1043480018D0E9E70F4B9842E6D11A2070476FF072
:104358000D0070471B2070471E2070471C207047B7
:104368001D20704736207047372070471920704746
:104378002E20704718207047002C01400010004084
:10438800004401400048014038B5FFF75DFE04468F
:104398000068FFF767FFD4E91312FDF781F820687A
:1043A800FFF760FFFDF7AEF822681046FFF7A2FF9F
:1043B80005461046FFF756FF85420BD02846D4E93C
:1043C8001312FDF76DF82068FFF794FFBDE8384039
:1043D800FDF798B838BD000008B5074B90F8B12034
:1043E80053F82200FEF798FD00F02200A0F1220306
:1043F8005842584108BD00BFC402002008B5074B09
:1044080090F8B12053F82200FEF786FD00F0210055
:10441800A0F121035842584108BD00BFC402002042
:1044280070B50E46054610B94FF0FF3070BDFFF766
:10443800D3FF04460028F7D12946012211F8B23FDC
:10444800337095F8B100034B53F82000FFF766F876
:104458002046EBE7C402002038B50D460446C0B13B
:10446800FFF7BAFFA8B994F9B000C4F89850FDF75F
:1044780057F894F8B100074B04F1B20153F8200043
:104488000122FFF74BF894F9B000BDE83840FDF77A
:1044980039B838BDC402002038B515460446C8B13D
:1044A800C0F89C1090F9B000FDF73AF8D4F8B8308D
:1044B800B4F8C21094F8B10013FA81F1064BAAB20D
:1044C80053F82000FEF796F894F9B000BDE838409C
:1044D800FDF718B838BD00BFC402002050B1D0F8AD
:1044E800A430013306D190F8B120034B53F82200D1
:1044F800FEF7C6BC704700BFC402002050B1D0F818
:10450800A430013306D190F8B120034B53F82200B0
:10451800FEF7DCBC704700BFC4020020D0F894301E
:1045280004381847D0F898300438184710B50446AE
:1045380050F80439DA69D1070CD501221A62FFF75D
:104548004BFFB0B904F1AE0120460122BDE810408E
:10455800FEF7E4BFDA69920701D50222EEE7DA69CD
:10456800510701D50422E9E7DA691207E7D50822DD
:10457800E4E710BD08B52520FCF7F8FF024B1868E2
:10458800BDE80840FEF796B8C402002008B526200A
:10459800FCF7ECFF034B586818B1BDE80840FEF77C
:1045A80089B808BDC402002008B52720FCF7DEFF43
:1045B800034B986818B1BDE80840FEF77BB808BD02
:1045C800C402002008B53420FCF7D0FF024BD8689D
:1045D800BDE80840FEF76EB8C402002008B55B20AD
:1045E800FCF7C4FF024B1869BDE80840FEF762B843
:1045F800C4020020012200F1AE01FEF78FBF0000C7
:104608000368234A93420CD1224BD3F8880000F068
:104618000300022839D0032814BF00200120C0035A
:1046280070471D4A934208D11A4BD3F8880000F00E
:104638000C00082829D00C28EEE7184A934208D124
:10464800144BD3F8880000F0300020281DD0302803
:10465800E2E7134A934208D10E4BD3F8880000F0E2
:10466800C000802811D0C028D6E70E4A93420AD14C
:10467800084BD3F8880000F44060B0F5006F04D010
:10468800B0F5406FC8E7002070470748704700BF83
:10469800003801400010024000440040004800403B
:1046A800004C0040008000400024F40001462DE941
:1046B800F84FFFF7A5FF0A68234B4E68DFF8908094
:1046C8009A4205464FEA560723D1DFF88090DFF873
:1046D80084B000244FF4807A39F8023B38F813206C
:1046E800002319462846FBF77BFD00231946BC46E4
:1046F800E0FB0AC132466046FBF772FDA0F5407048
:10470800584503D901340C2CE6D100242046BDE8D5
:10471800F88FC9690D4A00244FF6EF7032F8023B52
:10472800B1F5004F38F81330B5FBF3F30CBF07EBC6
:104738004303DB19B3FBF6F3103B8342E6D901349C
:104748000C2CEBD1E1E700BF008000408C5B000837
:104758001C5B0008FFFC0F002DE9F04F8DB0CDE980
:1047680001239DF85C3003939DF8603004939DF815
:10477800643005930F46834618B900200DB0BDE894
:10478800F08FB349D0F8A000FFF708FCB149824682
:10479800DBF8A400FFF702FCAF490646DBF8A800E7
:1047A800FFF7FCFBAD490446DBF8AC00FFF7F6FB6E
:1047B800A8498046DBF8A000FFF7F0FBA449814632
:1047C800DBF8A400FFF7EAFB0546BAF1000F02D1B7
:1047D800B9F1000FD1D0DBF8A420013202D00EB914
:1047E800002DCAD0DBF8A820013201D0002CC4D09B
:1047F800DBF8AC20013202D0B8F1000FBDD0314651
:104808005046FFF7F2FBCBF8000028B92946484686
:10481800FFF7EBFBCBF800002146FFF7E6FB41462C
:10482800CBF80000FFF7E1FBCBF800000028A4D08C
:104838008B4A904240F0DA8002F55842116C41F4FC
:1048480080411164116C21F480411164116E41F4AE
:1048580080411166126E02F480420792079A002185
:1048680025228BF8B1108BF8B020BAF1000F00F0B8
:104878003C817749DBF8A000FFF778FB002E40F079
:104888002E814FF00009002C00F042817249DBF8BC
:10489800A800FFF76BFB4FF4807AB8F1000F06D041
:1048A8006E49DBF8AC004AF4007AFFF75FFB9BF82F
:1048B800B1106C4A019BCBF80C300BF1040442F8A0
:1048C8002140DBF80020029BCBF81430CBE901270C
:1048D800169ACBF810200C22CBE9062A0022CBF836
:1048E80020202046FFF7E2FE039BCBF82800082291
:1048F800CBF82C20CBF83C9033B10A22CBF82C20F3
:104908004FF48032CBF83420049B4BB1DBF82C20D9
:1049180042F00102CBF82C204FF40032CBF83020C3
:10492800059B4BB1DBF82C2042F00402CBF82C207D
:104938004FF48022CBF838200022CBF82420012124
:104948009BF9B000FCF7ACFDDBF80010464A914239
:104958003FD1B7F5165F204600F2DC80FEF702FE75
:104968002046002E40F0D980002D40F0D680FEF77A
:1049780016FD002800F0EF80B7F5165F3B4F40F2B8
:10498800CF803A68520500F1EB80DBF80010364A18
:10499800914205D1D7F8882022F44062C7F88820D0
:1049A8002046002E40F0F580002D40F0F280FEF702
:1049B800F6FC002800F0CF80DBF800202A4B9A4252
:1049C80007D1D7F8883023F4406343F48063C7F8ED
:1049D80088302046002E40F0DF80002D40F0DC803B
:1049E800FEF7DDFCB0FA80F04009C7E6204A9042A5
:1049F80015D102F5E632916B41F400319163916B68
:104A080021F400319163916D41F400319165926D0B
:104A180002F400320892089A0121262221E7154A59
:104A2800904229D102F5E432916B41F480219163DF
:104A3800916B21F480219163916D41F480219165FE
:104A4800926D02F480220992099A0221272208E72E
:104A58004C5C0008F85B0008D45B0008A45B000805
:104A680000380140C40200200080004000100240CD
:104A78000044004000480040494A904215D102F5E0
:104A8800E232916B41F400219163916B21F4002192
:104A98009163916D41F400219165926D02F40022B9
:104AA8000A920A9A03213422DBE63E4A90427FF4B6
:104AB80064AE02F5C832D16B41F00101D163D16B0C
:104AC80021F00101D163D16D41F00101D165D26DB1
:104AD80002F001020B920B9A04215B22C1E63249D3
:104AE800DBF8A400FFF742FACBE6B9F1000F3FF478
:104AF800C8AE2D49DBF8A000FFF738FA15B94FF416
:104B08000049C0E62949DBF8A400FFF72FFAF6E7C9
:104B1800A246C2E6FEF73CFD22E7FEF710FC28E7B6
:104B28000220FEF7EFFFD7F8902093077FF529AF13
:104B38001C4ADBF80010914202BFD7F8882042F4E3
:104B48004062C7F8882020463EB935B9FEF727FCF1
:104B580000287FF416AF012010E6FEF7F0FBF7E718
:104B6800104ADBF80010914201BFD7F8882022F4E0
:104B7800406242F40062C7F88820204636B92DB951
:104B8800FEF70DFC00287FF400AFE4E7FEF7D7FB43
:104B9800F8E7FEF7D4FB0CE7FEF7D1FB22E700BFEE
:104BA800004C004000800040F85B00084C5C0008A6
:104BB8000A490346086810B50344EFF30882934294
:104BC80005D9074B0C221A604FF0FF3010BD054A7B
:104BD800054C121B9342F4D20B60F7E760000020EB
:104BE8009C0500200080002000040000FEE7000073
:104BF800024B16221A604FF0FF3070479C050020C8
:104C08000120704700B5A5B03822002105A800F0A2
:104C1800E3FC14220021684600F0DEFC4422002157
:104C280013A800F0D9FC0020FCF7B6FD2223059359
:104C38004FF4807C4023CDE908C34FF0010E0223D6
:104C48000421552205A8CDE90BE3CDE90E12CDE9E3
:104C580010330D931293FCF7FFFD00B1FEE70F210F
:104C68000323CDE90013CDE902000490082168462A
:104C7800FDF734F800B1FEE742F2200313932090C9
:104C88004FF4006313A81893FDF740F900B1FEE74D
:104C980025B05DF804FBB0F85431B0F85021981AEB
:104CA80000F03F007047B0F85431B0F850219BB283
:104CB80093421ABFD0F84831985C4FF0FF307047E4
:104CC80090F85231B0F85601C0B2834227BFC3F101
:104CD8003F03C018C01A00F1FF30704707B50368DA
:104CE8008DF807105B6801220DF10701984703B0A2
:104CF8005DF804FB13B50DF107010446FFF790FBBF
:104D080090B9B4F8C030B4F8BC20013303F03F03C5
:104D1800934209D0B4F8C020D4F8B4109DF8070025
:104D280092B28854A4F8C03002B010BDB0F8C220C6
:104D3800D0F8C41011FA82F202F03F0210B5A0F8C0
:104D4800C220B0F8C210B0F8BE2089B28A421BD087
:104D5800B0F8C240B0F8C210A4B24032121B54429C
:104D680089B204F03F0402F03F02C1F1400158BF8C
:104D780062428A4228BF0A46C0F8C4200349FFF7A6
:104D88008BFB4FF0FF3010BD0020FCE7354D0008CD
:104D98002DE9F843036804469B68884616469847F9
:104DA80001232374D4F83831B4F8527101338146A1
:104DB800C7F1400709D194F85D3133B1002384F875
:104DC8005D3104F19400FFF789FB236820469B6856
:104DD80098470028F9D03546BD4225D84D4523D8F7
:104DE800B4F85231D4F84C015A19402A184430D832
:104DF8002A46414600F072FC2F46B4F852311D4451
:104E080005F03F05A4F8525104F194052846FFF730
:104E1800F5FA30B91649C4F858713A462846FFF7EA
:104E28003BFB3046BDE8F8834F45236828BF4F4613
:104E38003A4641465B6820469847236820469B6867
:104E48009847ED1BB844B4F852718146C7F1400742
:104E5800C2E7C3F140073A46414600F03FFCD4F8A8
:104E68004C01EA1B08EB070100F038FCC5E700BF5E
:104E7800354D0008C0F83C31009BC0F840319142E4
:104E880008BF4FF0FF3100F11403C0E94D21C0F80D
:104E9800483100F154020023A0F85431C0E95323EB
:104EA800A0F856317047037C70B504460D46A3B18F
:104EB800FCF7DEFA0646B4F85221B4F856319BB234
:104EC8009A420AD0002DF8D0FCF7D2FA801B85420E
:104ED800F1D8B4F85631A4F8523170BD0021FFF76B
:104EE800E2BF0000CBB2182B08D80E4A52F8233084
:104EF80001F4E0611943C0F83811704701F0C002AD
:104F0800C02A0CD1C82B0AD8074B01F03F0201F484
:104F1800E06153F82220034B53F82230EAE74FF0C0
:104F2800FF31E8E7645F0008405F0008CBB2182B48
:104F380008D80E4A52F8233001F4E0611943C0F84A
:104F48003411704701F0C002C02A0CD1C82B0AD80E
:104F5800074B01F03F0201F4E06153F82220034BB4
:104F680053F82230EAE74FF0FF31E8E7645F0008C2
:104F7800405F000873B54FF47A7316460022C0E903
:104F880001231D4B03604FF0FF33C0F838311B4B32
:104F9800984204460D4615D1C221FFF7A3FFC72149
:104FA800FFF7C4FF012E4FF0FF3308BFC4F83831B4
:104FB80000932046D4E94D214FF0FF33FFF75AFF05
:104FC80002B070BD0E4B0F49DA690F4B53F822003F
:104FD800FEF7E4FF854202D1C2212046DDE70B49F6
:104FE8002846FEF7ECFF0749C4F838012846FEF7C3
:104FF800E6FFC4F83401D5E7E45F0008D8020020D2
:10500800405F00084C5C0008645F0008F85B00081B
:10501800D0F83831013310B504460ED10368DB6887
:10502800984794F85D3143B9012384F85D3104F160
:105038009400BDE81040FFF761BA10BD7FB502F0DB
:105048000703023BDBB2042B0446C0F8601180F86A
:105058005E219CBF1B48C05C02F0300388BF002063
:10506800302B24D101304FF4C0630738022825D8EB
:10507800E67C0396A67C0296C2F3C0025203667CC5
:105088000092114A019604F1940552F8202028460E
:10509800FFF762FB84F85C0188B12046FFF7B8FF90
:1050A8000A49284604B0BDE87040FFF7D5B912F0A8
:1050B80020031CBF01304FF48063D6E7FEE704B03D
:1050C80070BD00BFD45F0008C85F0008FD4C000831
:1050D80010B50446FFF79CFFB4F85421B4F85031DA
:1050E80092B29A421FBFD4F84821D05C013303F032
:1050F8003F0314BFA4F850314FF0FF3010BD00003B
:10510800024903480022FFF735BF00BF0080004076
:10511800D802002070B505460C46084649B1FBF791
:1051280057F82B680246214628465B68BDE8704060
:10513800184770BD08B5FFF7EDFF08BD08B502496F
:10514800FFF7E8FF08BD00BF085B000838B5054653
:10515800FFF7E0FF04462846FFF7F0FF204438BD7C
:10516800FFF7F4BF30B58BB00023012A0C468DF849
:10517800243098BF0A2209A92546B4FBF2F404FB9F
:10518800125303F0FF03092B94BF30333733DBB2DC
:10519800AA4201F8013DEFD9FFF7BCFF0BB030BDC3
:1051A80010B42AB902685DF8044B1268C9B21047F6
:1051B8005DF8044BD2B2FFF7D5BF38B50546FFF707
:1051C800EFFF04462846FFF7B9FF204438BD10B565
:1051D800044600F019F9E060236820465B699847A7
:1051E800002808DA00F010F9E368C01AA3689842AA
:1051F800F2D34FF0FF3010BDF8B507460D468E18B4
:105208000C46B44201D1601BF8BD3846FFF7DFFFFA
:10521800431CF8D004F8010BF3E72DE9F0410746E9
:10522800884616461D4673B100243846FFF7CFFF5F
:10523800431C05D0404503D030550134A542F4D174
:105248002046BDE8F0811C46FAE708B50320FCF7C4
:1052580015F9BDE8084000F0F7B808B5AFF30080CD
:10526800FBF796F8FBF738F800F0E0F8FAE70000EB
:105278000D488546FEF7C4FE0C480D490D4A00232B
:1052880002E0D458C4500433C4188C42F9D30A4AF3
:105298000A4C002301E013600432A242FBD300F061
:1052A800F7F9FFF7DAFFFEE7008000200000002092
:1052B800B400002030600008B4000020A0050020E1
:1052C800FEE70000C3B2182B2DE9F0410D462AD89D
:1052D8002C4A52F8233000F4E0641C43621C4ED080
:1052E800294EC4F3031704F00F0856F8273023FAA1
:1052F80008F3DB0710D525492046FEF79AFD18B3B9
:105308002046FEF78DFB56F82730012202FA08F2F4
:1053180023EA020346F82730052D1FD8DFE805F0F9
:105328001F2B2527292D00F0C002C02A27D1C82B02
:1053380025D8174B00F03F0200F4E06453F8222010
:10534800104B53F82230C8E712492046FEF771FD8A
:105358000028D8D02046FEF779FBD4E7FEE70021E5
:105368002046BDE8F041FEF773BD1021F8E7202183
:10537800F6E70321F4E70121F2E70921F0E7BDE8A8
:10538800F08100BF645F00083C0400201C5F000837
:10539800405F0008A05C0008C3B2182B19D8164A51
:1053A80052F8233000F4E0601843431C23D0C0F3C4
:1053B8000313062B98BF114A00F00F0098BF52F84C
:1053C80023300F4A88BF002352F8202091B19A61F8
:1053D800704700F0C002C02A0DD1C82B0BD8094B6A
:1053E80000F03F0200F4E06053F82220024B53F82B
:1053F8002230D9E79A627047645F00081C000020D9
:10540800345B0008405F0008FEF770BBFEF74ABB3C
:1054180038B5044648B1FEF769FB054600F016F8B2
:10542800FEF764FB431BA342F8D338BD08B5044B11
:105438002BB10448FFF72FFC08B1AFF3008008BD7B
:1054480000000000D8020020FEF704BC704708B531
:10545800062000F0F1F80120FFF7C8FB024B0146D7
:10546800186800F02DB800BF64000020024B014608
:10547800186800F041B900BF6400002070B50F4EF5
:105488000C463168054611B900F0F2F83060214643
:10549800284600F0EDF8431C03D14FF0FF342046B6
:1054A80070BDC41C24F00304A042F8D0211A284679
:1054B80000F0DEF80130F2D1EFE700BF5804002019
:1054C8002DE9F843CD1C25F0030508350C2D38BF10
:1054D8000C25002D064601DBA94204D90C233360B4
:1054E8000020BDE8F883DFF8D48000F069F8D8F828
:1054F80000301C4644BB29463046FFF7BFFF431C1B
:10550800044658D1D8F800402746002F43D1002C34
:105518004BD023683946304604EB030900F0A8F85D
:10552800814542D121686D1A29463046FFF7A6FF0A
:1055380001303AD023682B442360D8F800305A68E9
:1055480062BBC8F800700FE02268521B20D40B2AF7
:1055580017D96119A342256018BF5960636808BF4D
:10556800C8F8001062514B60304600F02FF804F183
:105578000B00231D20F00700C21A1CBF1B1AA350E2
:10558800AFE76268A3420CBFC8F800205A60EBE797
:1055980023466468AEE73C467F68B6E71A465B6810
:1055A800A342FBD100235360DEE70C23336030466F
:1055B80000F00CF894E70560D6E700BF5C04002013
:1055C800014800F089B800BF98050020014800F0A4
:1055D80084B800BF9805002002440346934200D1D6
:1055E800704703F8011BF9E71F2938B505460C4633
:1055F80004D9162303604FF0FF3038BDC26B12B1D7
:1056080052F821304BB9284600F030F822460146BE
:105618002846BDE8384000F017B8012B0AD0591CBD
:1056280003D1162303600120E7E7002142F8241084
:10563800204698470020E0E7024B01461868FFF72C
:10564800D3BF00BF6400002038B5074D00230446CF
:10565800084611462B60FFF7CBFA431C02D12B6892
:1056680003B1236038BD00BF9C050020FFF7C8BA0E
:1056780038B5064D0023044608462B60FFF798FA14
:10568800431C02D12B6803B1236038BD9C05002060
:1056980070B50D4B0D4D5B1B9C100026A64209D121
:1056A80000F0F4F90A4D0B4B5B1B9C100026A64238
:1056B80005D170BD55F8043B98470136EEE755F81B
:1056C800043B98470136F2E71060000810600008B4
:1056D8001060000824600008704770470A4491422F
:1056E80000F1FF3300D1704710B511F8014B03F8F2
:1056F800014F9142F9D110BD38B50546002941D076
:1057080051F8043C0C1F002BB8BFE418FFF758FFF2
:105718001D4A136833B9636014602846BDE83840F1
:10572800FFF754BFA34208D9206821188B4201BF54
:1057380019685B6809182160EDE71A465B680BB1C8
:10574800A342FAD911685018A0420BD1206801442D
:10575800501883421160E0D118685B6853600844B0
:105768001060DAE702D90C232B60D6E720682118ED
:105778008B4204BF19685B68636004BF0918216025
:105788005460CAE738BD00BF5C0400202DE9F0472B
:10579800089D0F4604468C46002B48D18A4216467F
:1057A80061D9B2FA82F34BB1C3F1200201FA03FCCA
:1057B80020FA02F29E4042EA0C0C9C404FEA164E38
:1057C800B7B2BCFBFEF1220C0EFB11CC42EA0C4234
:1057D80001FB07F0904209D9B21801F1FF3C80F0B3
:1057E800EE80904240F2EB8002393244121AA4B2A1
:1057F800B2FBFEF00EFB102244EA024400FB07F75E
:10580800A74209D9341900F1FF3280F0DA80A742A3
:1058180040F2D7803444023840EA0140E41B0021BA
:105828001DB1DC400023C5E90043BDE8F0878B4289
:1058380006D90DB1C5E9000100210846BDE8F08789
:10584800B3FA83F1002948D1BB4202D3824200F265
:105858000781841A67EB030201209446002DE4D0E7
:10586800C5E9004CE1E7002A00F09280B2FA82F321
:10587800002B40F0A8808A1A4FEA164E1FFA86FCC1
:105888000121200CB2FBFEF70EFB172240EA024270
:105898000CFB07F0904207D9B21807F1FF3802D283
:1058A800904200F2E2804746121AA4B2B2FBFEF020
:1058B8000EFB102244EA02440CFB00FCA44507D965
:1058C800341900F1FF3202D2A44500F2CB80104611
:1058D800A4EB0C0440EA0740A2E7C1F120068B4084
:1058E80022FA06FC4CEA030C07FA01F420FA06F344
:1058F800F7404FEA1C49234300FA01F81FFA8CFECF
:10590800B7FBF9F01C0C09FB107744EA074400FBCD
:105918000EF7A74202FA01F20AD91CEB040400F1BF
:10592800FF3A80F09B80A74240F298800238644496
:10593800E41B9FB2B4FBF9F309FB134447EA0444A0
:1059480003FB0EFEA64509D91CEB040403F1FF373F
:1059580080F08280A6457FD9023B644443EA004038
:10596800A4EB0E04A0FB02E7BC427346B94663D31E
:1059780060D05DB1B8EB030264EB090404FA06F6E3
:1059880022FA01F31E43CC40C5E9006400214CE72C
:105998006208480842EAC1710B0C43EA00438AB224
:1059A80042EA0342B3FBF6F1E407B4463746B6468B
:1059B8001F23B0FBF6F0D21B41EA004161E76146C4
:1059C80014E7104628E7C3F1200120FA01F29E40AF
:1059D80027FA01F19F403A434FEA164E1FFA86FC18
:1059E800B1FBFEF70EFB1710110C41EA004107FB53
:1059F8000CF8884504FA03F43AD9711807F1FF3016
:105A080001D288451FD8A1EB0801B1FBFEF808FBBD
:105A18000CF70EFB181192B242EA0142BA422FD299
:105A2800B21808F1FF31C6D2BA42C4D2A8F10201B5
:105A38003244C0E7F0459CD2BEEB020367EB0C078B
:105A48000138B94695E7A6EB08084144B81EB1FBF2
:105A5800FEF808FB0CF7DCE73B467FE7504667E7B4
:105A68000846FBE63444023832E7023F32441BE77B
:105A7800A1EB08013846B1FBFEF808FB0CF7C8E7B4
:105A8800414698E708B5FFF7E2FC0000F8B500BF0B
:105A9800F8BC08BC9E467047F8B500BFF8BC08BC07
:045AA8009E4670475F
:105AAC00636F6C6F72206368616E67650046444378
:105ABC00414E2073746172746564204F4B004644F0
:105ACC0043414E20626567696E4644206572726F71
